:100000000C942A000C9447000C9447000C94470071
:100010000C9447000C9447000C9447000C94470044
:100020000C9447000C9447000C9447000C94470034
:100030000C9447000C9447000C9447000C94470024
:100040000C9447000C9447000C9447000C94470014
:100050000C94470011241FBECFE5D8E0DEBFCDBF12
:1000600010E0A0E6B0E0EAE5FCE202C005900D92E7
:10007000A038B107D9F710E0A0E8B0E001C01D92A8
:10008000AE39B107E1F70E9462150C942B160C945F
:100090000000EF92FF920F931F937B018C0120E0F1
:1000A00030E040E05FE40E94490388238CF0C801FF
:1000B000B70120E030E040E05FE40E94C1010E940F
:1000C000A9039B01AC01205030404040504806C07D
:1000D000C801B7010E94A9039B01AC01B901CA0183
:1000E0001F910F91FF90EF900895A0E0B0E0EBE733
:1000F000F0E00C94F415DC012B01FA019C91923094
:1001000008F439C1EB018881823008F433C194309E
:1001100069F4843009F02FC111969C91119789815F
:10012000981709F428C1A0E6B0E025C1843009F48D
:1001300021C18230A9F4923009F01DC19A01AD01AC
:1001400088E0EA010990AE01E90109929E0181501F
:10015000C1F7E201898111969C918923818308C1AD
:10016000923009F407C112962D903C901397EB0141
:100170008A819B811496AD90BD90CD90DC901797AD
:10018000EC80FD800E811F819101281B390BB90184
:1001900037FF04C066277727621B730B6032710537
:1001A0000CF061C0121613066CF537014801062EDB
:1001B00004C096948794779467940A94D2F721E0C8
:1001C00030E040E050E004C0220F331F441F551FB1
:1001D0006A95D2F721503040404050402E213F21B7
:1001E00040235123211531054105510521F021E01E
:1001F00030E040E050E079018A01E628F72808293C
:1002000019293CC0232BD1F1260E371E350146019A
:10021000062E04C096948794779467940A94D2F734
:1002200021E030E040E050E004C0220F331F441FC3
:10023000551F6A95D2F721503040404050402A2146
:100240003B214C215D21211531054105510521F04E
:1002500021E030E040E050E059016A01A628B728CB
:10026000C828D9280BC0821593052CF01C01AA249C
:10027000BB24650103C0EE24FF24870111969C91E5
:10028000D20111968C91981709F445C0992339F041
:10029000A80197012A193B094C095D0906C0A6016E
:1002A00095012E193F09400B510B57FD08C01182D3
:1002B0003382228224833583468357831DC081E0A5
:1002C00081833382228288279927DC01821B930B4A
:1002D000A40BB50B84839583A683B7830DC0220F2F
:1002E000331F441F551F24833583468357838281E0
:1002F000938101979383828324813581468157813D
:10030000DA01C9010197A109B1098F5F9F4FAF4F72
:10031000BF4328F30BC0918333822282EA0CFB1C7B
:100320000C1D1D1DE482F5820683178383E0808304
:10033000248135814681578157FF1AC0C901AA27F8
:1003400097FDA095BA2F81709070A070B0705695EF
:10035000479537952795822B932BA42BB52B848318
:100360009583A683B7838281938101969383828349
:10037000DF0101C0D201CD01CDB7DEB7E2E10C94BF
:100380001016A0E2B0E0E7ECF1E00C9400166983EF
:100390007A838B839C832D833E834F835887E9E048
:1003A000EE2EF12CEC0EFD1ECE010196B7010E943F
:1003B000D2048E010F5E1F4FCE010596B8010E9438
:1003C000D2048A8991E089278A8BC701B801AE01DE
:1003D000475E5F4F0E9475000E94FD03A096E6E015
:1003E0000C941C16A0E2B0E0E8EFF1E00C940016CB
:1003F00069837A838B839C832D833E834F835887C5
:10040000F9E0EF2EF12CEC0EFD1ECE010196B701A6
:100410000E94D2048E010F5E1F4FCE010596B801D7
:100420000E94D204C701B801AE01475E5F4F0E942F
:1004300075000E94FD03A096E6E00C941C16A0E255
:10044000B0E0E5E2F2E00C94F41569837A838B83E3
:100450009C832D833E834F835887CE010196BE0136
:10046000675F7F4F0E94D204CE010596BE016F5E8A
:100470007F4F0E94D2049985923088F0898982301A
:10048000C8F0943019F4823051F404C0843029F457
:10049000923081F480E690E0C6C0923049F420E0CA
:1004A0009A858A89981321E02A87CE010996BBC0D4
:1004B000823049F420E09A858A89981321E02A8BBA
:1004C000CE014196B0C02D843E844F8458886D88FB
:1004D0007E888F88988CEE24FF248701AA24BB2471
:1004E000650140E050E060E070E0E0E0F0E0C10174
:1004F00081709070892BE9F0E60CF71C081D191D1E
:100500009A01AB012A0D3B1D4C1D5D1D80E090E062
:10051000A0E0B0E0E614F7040805190520F481E036
:1005200090E0A0E0B0E0BA01A901480F591F6A1F8E
:100530007B1FAA0CBB1CCC1CDD1C97FE08C081E0F5
:1005400090E0A0E0B0E0A82AB92ACA2ADB2A3196B6
:10055000E032F10549F0660C771C881C991C569412
:10056000479437942794C3CFFA85EA892B893C892D
:100570008B859C85280F391F2E5F3F4F17C0CA01FE
:1005800081709070892B61F016950795F794E79428
:1005900080E090E0A0E0B0E8E82AF92A0A2B1B2BC3
:1005A00076956795579547952F5F3F4F77FDE7CF36
:1005B0000CC0440F551F661F771F17FD4160EE0CDE
:1005C000FF1C001F111F21503040403090E05907A0
:1005D00090E0690790E4790760F32B8F3C8FDB0193
:1005E000CA018F779070A070B07080349105A1051A
:1005F000B10561F447FD0AC0E114F10401051105DC
:1006000029F0405C5F4F6F4F7F4F40781A8EFE1786
:1006100011F081E08A8F4D8F5E8F6F8F78A383E01A
:10062000898FCE0149960E94FD03A096E2E10C94C9
:100630001016A8E1B0E0EFE1F3E00C940016698336
:100640007A838B839C832D833E834F83588789E0F5
:10065000E82EF12CEC0EFD1ECE010196B7010E9492
:10066000D2048E010F5E1F4FCE010596B8010E9485
:10067000D2048985823040F08989823028F0C70110
:10068000B8010E944A0501C08FEF6896E6E00C941D
:100690001C16A8E1B0E0EFE4F3E00C9400166983C7
:1006A0007A838B839C832D833E834F83588789E095
:1006B000E82EF12CEC0EFD1ECE010196B7010E9432
:1006C000D2048E010F5E1F4FCE010596B8010E9425
:1006D000D2048985823040F08989823028F0C701B0
:1006E000B8010E944A0501C08FEF6896E6E00C94BD
:1006F0001C16A8E1B0E0EFE7F3E00C940016698364
:100700007A838B839C832D833E834F83588789E034
:10071000E82EF12CEC0EFD1ECE010196B7010E94D1
:10072000D2048E010F5E1F4FCE010596B8010E94C4
:10073000D2048985823040F08989823028F0C7014F
:10074000B8010E944A0501C081E06896E6E00C9479
:100750001C16ACE0B0E0EFEAF3E00C9404166983F9
:100760007A838B839C83CE010196BE016B5F7F4FA2
:100770000E94D2048D81823061F1823050F1843048
:1007800021F48E81882351F12EC02F81388537FDC9
:1007900020C06E812F3131051CF06623F9F023C093
:1007A0008EE190E0821B930B29853A854B855C8511
:1007B00004C056954795379527958A95D2F76623B5
:1007C000B1F050954095309521953F4F4F4F5F4F79
:1007D0000EC020E030E040E050E009C02FEF3FEFD6
:1007E0004FEF5FE704C020E030E040E050E8B9019F
:1007F000CA012C96E2E00C942016DF92EF92FF9251
:100800000F931F93FC01E480F58006811781D1804E
:100810008081823048F480E090E0A0E1B0E0E82AF6
:10082000F92A0A2B1B2BA5C0843009F49FC0823003
:1008300021F4EE24FF24870105C0E114F104010531
:10084000110519F4E0E0F0E096C0628173819FEF3A
:10085000623879070CF05BC022E83FEF261B370BAC
:100860002A3131052CF020E030E040E050E02AC091
:10087000B801A701022E04C0769567955795479554
:100880000A94D2F781E090E0A0E0B0E004C0880FC5
:10089000991FAA1FBB1F2A95D2F70197A109B10979
:1008A0008E219F21A023B1230097A105B10521F03E
:1008B00081E090E0A0E0B0E09A01AB01282B392B59
:1008C0004A2B5B2BDA01C9018F779070A070B07052
:1008D00080349105A105B10539F427FF09C0205CDA
:1008E0003F4F4F4F5F4F04C0215C3F4F4F4F5F4F13
:1008F000E0E0F0E02030A0E03A07A0E04A07A0E402
:100900005A0710F0E1E0F0E079018A0127C0603871
:10091000710564F5FB01E158FF4FD801C7018F77DE
:100920009070A070B07080349105A105B10539F4C4
:10093000E7FE0DC080E490E0A0E0B0E004C08FE3EB
:1009400090E0A0E0B0E0E80EF91E0A1F1B1F17FFA1
:1009500005C016950795F794E794319687E01695AC
:100960000795F794E7948A95D1F705C0EE24FF2404
:100970008701EFEFF0E06E2F679566276795902F60
:100980009F77D794DD24D7948E2F8695492F462BB9
:10099000582F5D29B701CA011F910F91FF90EF9069
:1009A000DF900895FC01DB01408151812281622F9B
:1009B0006F7770E0221F2227221F9381892F880FD3
:1009C000822B282F30E0991F9927991F11969C930D
:1009D000119721153105A9F54115510561057105DD
:1009E00011F482E037C082E89FEF13969C938E93B8
:1009F00012979A01AB0167E0220F331F441F551F66
:100A00006A95D1F783E08C930DC0220F331F441FEA
:100A1000551F12968D919C911397019713969C9355
:100A20008E931297203080E0380780E0480780E4FA
:100A3000580758F314962D933D934D935C93179755
:100A400008952F3F310579F4411551056105710570
:100A500019F484E08C93089564FF03C081E08C93C3
:100A600012C01C9210C02F57304013963C932E9307
:100A7000129783E08C9387E0440F551F661F771F02
:100A80008A95D1F7706414964D935D936D937C9322
:100A9000179708951F93DC01FB019C91923008F495
:100AA00047C08081823008F443C0943051F41196DD
:100AB0001C91843099F58181682F70E0611B710968
:100AC0003FC0843021F0923031F48230B9F181811D
:100AD000882389F12DC011961C9111978230F1F075
:100AE00081811817D9F412962D913C911397828128
:100AF00093818217930794F028173907BCF0149656
:100B00008D919D910D90BC91A02D248135814681C0
:100B10005781281739074A075B0718F4112341F05A
:100B20000AC082179307A407B50740F4112319F0F0
:100B300061E070E005C06FEF7FEF02C060E070E041
:100B4000CB011F910895DF93CF930F92CDB7DEB7FE
:100B50001982EAE3F0E08FEF8083E7E3F0E08FEFC4
:100B60008083E4E3F0E08FEF8083E1E3F0E08FEF58
:100B70008083EBE3F0E01082E8E3F0E01082EBE347
:100B8000F0E01082EBE3F0E0108281E0898389815C
:100B90000F90CF91DF910895DF93CF9300D000D0D5
:100BA0000F92CDB7DEB78A836B8319828A81843036
:100BB00098F58A81282F30E03D832C838C819D819C
:100BC00081309105D1F02C813D81223031052CF40A
:100BD0008C819D81009761F021C02C813D81223064
:100BE000310581F08C819D818330910581F016C0A3
:100BF000EAE3F0E08B81808311C0E7E3F0E08B81D2
:100C000080830CC0E4E3F0E08B81808307C0E1E3E4
:100C1000F0E08B81808302C083E0898389810F901B
:100C20000F900F900F900F90CF91DF910895DF9369
:100C3000CF9300D000D00F92CDB7DEB78A836B83FD
:100C400019828A81843098F58A81282F30E03D838B
:100C50002C838C819D8181309105D1F02C813D8147
:100C6000223031052CF48C819D81009761F021C0E8
:100C70002C813D812230310581F08C819D81833032
:100C8000910581F016C0EBE3F0E08B81808311C009
:100C9000E8E3F0E08B8180830CC0E5E3F0E08B813A
:100CA000808307C0E2E3F0E08B81808302C083E0B1
:100CB000898389810F900F900F900F900F90CF91A3
:100CC000DF910895DF93CF9300D000D0CDB7DEB78A
:100CD0008A8319828A81843008F03FC08A81282F54
:100CE00030E03C832B838B819C8181309105E9F03E
:100CF0002B813C81223031052CF48B819C81009723
:100D000061F02DC02B813C8122303105B1F08B8107
:100D10009C8183309105C9F022C0ABE3B0E0EBE3E6
:100D2000F0E0808180958C931AC0A8E3B0E0E8E3FE
:100D3000F0E0808180958C9312C0A5E3B0E0E5E3FC
:100D4000F0E0808180958C930AC0A2E3B0E0E2E3FA
:100D5000F0E0808180958C9302C083E08983898153
:100D60000F900F900F900F90CF91DF910895DF9328
:100D7000CF9300D000D000D0CDB7DEB78A837C837C
:100D80006B8319828B819C81009709F441C08A8111
:100D90008430D8F58A81282F30E03E832D838D81E1
:100DA0009E8181309105E1F02D813E812230310517
:100DB0002CF48D819E81009761F02CC02D813E81A5
:100DC00022303105A1F08D819E8183309105B1F0F3
:100DD00021C0E9E3F0E08081EB81FC8180831AC0CF
:100DE000E6E3F0E08081EB81FC81808313C0E3E3E4
:100DF000F0E08081EB81FC8180830CC0E0E3F0E0D7
:100E00008081EB81FC81808305C083E0898302C0FF
:100E100082E08983898126960FB6F894DEBF0FBEE3
:100E2000CDBFCF91DF910895DF93CF9300D000D055
:100E300000D0CDB7DEB78A836B834C8319828A8159
:100E4000843008F0CFC08B81883008F0CBC08C8113
:100E5000823008F0C7C08A81282F30E03E832D837E
:100E60006D817E816130710509F441C08D819E8163
:100E70008230910534F42D813E812115310571F0C8
:100E8000B3C06D817E816230710509F459C08D81D6
:100E90009E818330910509F47CC0A6C0AAE3B0E02E
:100EA000EAE3F0E08081482F8B81282F30E081E059
:100EB00090E002C0880F991F2A95E2F7809584235D
:100EC0008C93AAE3B0E0EAE3F0E08081482F8C81C4
:100ED000282F30E08B81882F90E0B90102C0660F87
:100EE000771F8A95E2F7CB01842B8C937DC0A7E313
:100EF000B0E0E7E3F0E08081482F8B81282F30E0DD
:100F000081E090E002C0880F991F2A95E2F7809552
:100F100084238C93A7E3B0E0E7E3F0E08081482FDF
:100F20008C81282F30E08B81882F90E0B90102C09E
:100F3000660F771F8A95E2F7CB01842B8C9354C000
:100F4000A4E3B0E0E4E3F0E08081482F8B81282F18
:100F500030E081E090E002C0880F991F2A95E2F707
:100F6000809584238C93A4E3B0E0E4E3F0E08081F7
:100F7000482F8C81282F30E08B81882F90E0B90199
:100F800002C0660F771F8A95E2F7CB01842B8C9302
:100F90002BC0A1E3B0E0E1E3F0E08081482F8B813A
:100FA000282F30E081E090E002C0880F991F2A9539
:100FB000E2F7809584238C93A1E3B0E0E1E3F0E0D5
:100FC0008081482F8C81282F30E08B81882F90E002
:100FD000B90102C0660F771F8A95E2F7CB01842B17
:100FE0008C9302C083E08983898126960FB6F8949A
:100FF000DEBF0FBECDBFCF91DF910895DF93CF93BA
:1010000000D000D000D0CDB7DEB78A836B834C838D
:1010100019828A81843008F0CFC08B81883008F033
:10102000CBC08C81823008F0C7C08A81282F30E085
:101030003E832D836D817E816130710509F441C04D
:101040008D819E818230910534F42D813E81211560
:10105000310571F0B3C06D817E816230710509F494
:1010600059C08D819E818330910509F47CC0A6C052
:10107000ABE3B0E0EBE3F0E08081482F8B81282FD9
:1010800030E081E090E002C0880F991F2A95E2F7D6
:10109000809584238C93ABE3B0E0EBE3F0E08081B8
:1010A000482F8C81282F30E08B81882F90E0B90168
:1010B00002C0660F771F8A95E2F7CB01842B8C93D1
:1010C0007DC0A8E3B0E0E8E3F0E08081482F8B81A9
:1010D000282F30E081E090E002C0880F991F2A9508
:1010E000E2F7809584238C93A8E3B0E0E8E3F0E096
:1010F0008081482F8C81282F30E08B81882F90E0D1
:10110000B90102C0660F771F8A95E2F7CB01842BE5
:101110008C9354C0A5E3B0E0E5E3F0E08081482F74
:101120008B81282F30E081E090E002C0880F991F6A
:101130002A95E2F7809584238C93A5E3B0E0E5E35C
:10114000F0E08081482F8C81282F30E08B81882F20
:1011500090E0B90102C0660F771F8A95E2F7CB01D4
:10116000842B8C932BC0A2E3B0E0E2E3F0E080811B
:10117000482F8B81282F30E081E090E002C0880F5B
:10118000991F2A95E2F7809584238C93A2E3B0E01F
:10119000E2E3F0E08081482F8C81282F30E08B81C2
:1011A000882F90E0B90102C0660F771F8A95E2F799
:1011B000CB01842B8C9302C083E08983898126969E
:1011C0000FB6F894DEBF0FBECDBFCF91DF9108956B
:1011D000DF93CF9300D000D00F92CDB7DEB78A83D4
:1011E0006B8319828A81843008F073C08B818830C8
:1011F00008F06FC08A81282F30E03D832C838C81DA
:101200009D818130910549F12C813D81223031054C
:101210002CF48C819D81009761F05DC02C813D8113
:101220002230310571F18C819D8183309105E9F186
:1012300052C0ABE3B0E0EBE3F0E08081482F8B815C
:10124000282F30E081E090E0022E02C0880F991F25
:101250000A94E2F784278C933EC0A8E3B0E0E8E369
:10126000F0E08081482F8B81282F30E081E090E0F2
:10127000022E02C0880F991F0A94E2F784278C93EC
:101280002AC0A5E3B0E0E5E3F0E08081482F8B8140
:10129000282F30E081E090E0022E02C0880F991FD5
:1012A0000A94E2F784278C9316C0A2E3B0E0E2E34D
:1012B000F0E08081482F8B81282F30E081E090E0A2
:1012C000022E02C0880F991F0A94E2F784278C939C
:1012D00002C083E0898389810F900F900F900F9057
:1012E0000F90CF91DF910895DF93CF93CDB7DEB705
:1012F00027970FB6F894DEBF0FBECDBF8A836B83EE
:101300005D834C8319828C819D81009709F47CC098
:101310008A81843008F075C08B81883008F071C0F4
:101320008A81282F30E03F832E834E815F814130B8
:10133000510559F18E819F818230910534F42E81BF
:101340003F812115310569F061C04E815F814230D6
:10135000510579F18E819F818330910509F43DC05B
:1013600055C0E9E3F0E08081282F30E08B81882FA1
:1013700090E0A90102C0559547958A95E2F7CA0108
:101380008170EC81FD81808341C0E6E3F0E08081E3
:10139000282F30E08B81882F90E0A90102C055955D
:1013A00047958A95E2F7CA018170EC81FD818083BF
:1013B0002DC0E3E3F0E08081282F30E08B81882F7F
:1013C00090E0A90102C0559547958A95E2F7CA01B8
:1013D0008170EC81FD81808319C0E0E3F0E08081C1
:1013E000282F30E08B81882F90E0A90102C055950D
:1013F00047958A95E2F7CA018170EC81FD8180836F
:1014000005C083E0898302C082E0898389812796B1
:101410000FB6F894DEBF0FBECDBFCF91DF91089518
:10142000DF93CF93CDB7DEB7E9970FB6F894DEBF61
:101430000FBECDBF19AE82E060E041E00E9414070C
:1014400082E061E041E00E94140782E062E041E056
:101450000E94140783E067E041E00E94140783E0E4
:1014600066E041E00E94140783E065E041E00E94ED
:10147000140783E064E041E00E94140780E090E0FC
:10148000ACE0B2E48DAB9EABAFABB8AF6DA97EA9BB
:101490008FA998AD20E030E04AEF54E40E941F028B
:1014A000DC01CB0189AB9AABABABBCAB69A97AA928
:1014B0008BA99CA920E030E040E85FE30E9479031B
:1014C00088232CF481E090E098AB8FA73FC069A9F6
:1014D0007AA98BA99CA920E03FEF4FE757E40E942F
:1014E000190318164CF56DA97EA98FA998AD20E0B7
:1014F00030E040E251E40E941F02DC01CB01BC015C
:10150000CD010E944900DC01CB0198AB8FA70FC031
:1015100088EC90E09EA78DA78DA59EA50197F1F779
:101520009EA78DA78FA598A9019798AB8FA78FA588
:1015300098A9009769F714C069A97AA98BA99CA9F1
:101540000E944900DC01CB0198AB8FA78FA598A919
:101550009CA78BA78BA59CA50197F1F79CA78BA7B0
:1015600083E063E041E00E94140783E062E041E031
:101570000E94140783E061E041E00E94140783E0C9
:1015800060E041E00E94140788E30E94D00E80E0F2
:1015900090E0A0E8BFE38FA398A7A9A7BAA76FA17F
:1015A00078A589A59AA520E030E04AEF54E40E948E
:1015B0001F02DC01CB018BA39CA3ADA3BEA36BA137
:1015C0007CA18DA19EA120E030E040E85FE30E9475
:1015D000790388232CF481E090E09AA389A33FC08B
:1015E0006BA17CA18DA19EA120E03FEF4FE757E4C6
:1015F0000E94190318164CF56FA178A589A59AA524
:1016000020E030E040E251E40E941F02DC01CB0107
:10161000BC01CD010E944900DC01CB019AA389A342
:101620000FC088EC90E098A38F8F8F8D98A10197C1
:10163000F1F798A38F8F89A19AA101979AA389A303
:1016400089A19AA1009769F714C06BA17CA18DA113
:101650009EA10E944900DC01CB019AA389A389A124
:101660009AA19E8F8D8F8D8D9E8D0197F1F79E8F04
:101670008D8F8FE00E94D00E80E090E0A0E8BFE365
:10168000898F9A8FAB8FBC8F698D7A8D8B8D9C8D56
:1016900020E030E04AEF54E40E941F02DC01CB015D
:1016A0008D8B9E8BAF8BB88F6D897E898F89988D3E
:1016B00020E030E040E85FE30E94790388232CF4C7
:1016C00081E090E09C8B8B8B3FC06D897E898F89F8
:1016D000988D20E03FEF4FE757E40E94190318165A
:1016E0004CF5698D7A8D8B8D9C8D20E030E040E249
:1016F00051E40E941F02DC01CB01BC01CD010E941C
:101700004900DC01CB019C8B8B8B0FC088EC90E0F7
:101710009A8B898B89899A890197F1F79A8B898BA2
:101720008B899C8901979C8B8B8B8B899C890097DB
:1017300069F714C06D897E898F89988D0E94490050
:10174000DC01CB019C8B8B8B8B899C89988B8F8741
:101750008F8598890197F1F7988B8F8781E00E9498
:10176000D00E80E090E0A0E0B0E48B879C87AD874E
:10177000BE876B857C858D859E8520E030E04AEFB5
:1017800054E40E941F02DC01CB018F839887A98754
:10179000BA876F81788589859A8520E030E040E8B6
:1017A0005FE30E94790388232CF481E090E09E831C
:1017B0008D833FC06F81788589859A8520E03FEFD2
:1017C0004FE757E40E94190318164CF56B857C858A
:1017D0008D859E8520E030E040E251E40E941F02AA
:1017E000DC01CB01BC01CD010E944900DC01CB0131
:1017F0009E838D830FC088EC90E09C838B838B81CC
:101800009C810197F1F79C838B838D819E81019749
:101810009E838D838D819E81009769F714C06F81AF
:10182000788589859A850E944900DC01CB019E83D9
:101830008D838D819E819A83898389819A81019785
:10184000F1F79A83898386E00E94D00E89ADE996EC
:101850000FB6F894DEBF0FBECDBFCF91DF910895D4
:10186000DF93CF9300D0CDB7DEB78A83198282E0B1
:1018700060E041E00E94FE078A810E94730D898129
:101880000F900F90CF91DF910895DF93CF9300D009
:10189000CDB7DEB78A83198282E060E040E00E9423
:1018A000FE078A810E94730D89810F900F90CF915E
:1018B000DF910895DF93CF93CDB7DEB72B970FB6A7
:1018C000F894DEBF0FBECDBF688779878A879B8774
:1018D0001F821B821C821D821E821A8219828885A9
:1018E0009985AA85BB85BB230CF057C082E060E0D8
:1018F00041E00E94FE078DE20E94730D8885998564
:10190000AA85BB85B095A095909581959F4FAF4FC7
:10191000BF4F88879987AA87BB873FC088859985ED
:10192000AA85BB852AE030E040E050E0BC01CD0153
:101930000E94A315DC01CB018A838B819C81AD8140
:10194000BE812AE030E040E050E0BC01CD010E94C1
:1019500071159B01AC018A81882F90E0A0E0B0E076
:10196000820F931FA41FB51F8B839C83AD83BE83FF
:1019700088859985AA85BB852AE030E040E050E063
:10198000BC01CD010E94A315DA01C901888799879E
:10199000AA87BB8789818F5F898388859985AA8576
:1019A000BB850097A105B10509F0B8CF2DC08B818B
:1019B0009C81AD81BE812AE030E040E050E0BC0176
:1019C000CD010E94A315DC01CB018A8382E060E097
:1019D00041E00E94FE078A81805D0E94730D8B8129
:1019E0009C81AD81BE812AE030E040E050E0BC0146
:1019F000CD010E94A315DA01C9018B839C83AD83BD
:101A0000BE838981815089838981882381F68F8172
:101A10002B960FB6F894DEBF0FBECDBFCF91DF91EE
:101A20000895DF93CF93CDB7DEB727970FB6F8941D
:101A3000DEBF0FBECDBF9C838B836D834E832F8310
:101A40001A828D81893008F042C080E40E94D00E55
:101A500082E060E041E00E94FE0719820EC08981A9
:101A6000282F30E08B819C81FC01E20FF31F8081E5
:101A70000E94730D89818F5F89838981282F30E0CF
:101A80008D81882F90E0880F991F880F991F880FEC
:101A9000991F281739071CF38F81843031F48E8108
:101AA0000E94D00E8F810E94D00E19820BC082E05E
:101AB00060E041E00E94FE0789810E94730D8981E8
:101AC0008F5F898399818D81981788F302C083E0A5
:101AD0008A838A8127960FB6F894DEBF0FBECDBFEA
:101AE000CF91DF910895DF93CF93CDB7DEB76D9798
:101AF0000FB6F894DEBF0FBECDBF8D8F82E061E0E0
:101B000040E00E94FE0782E062E040E00E94FE07A3
:101B10008D8D982F991F9927991F83E067E0492F92
:101B20000E94FE078D8D8295869586958370982FED
:101B3000917083E066E0492F0E94FE078D8D8295AB
:101B400086958770982F917083E065E0492F0E94F9
:101B5000FE078D8D82958F70982F917083E064E0E1
:101B6000492F0E94FE078D8D869586958695982F24
:101B7000917083E063E0492F0E94FE078D8D86956A
:101B80008695982F917083E062E0492F0E94FE07AE
:101B90008D8D8695982F917083E061E0492F0E948A
:101BA000FE078D8D982F917083E060E0492F0E9491
:101BB000FE0782E062E041E00E94FE0780E090E0E4
:101BC000A0E2B1E4898F9A8FAB8FBC8F698D7A8D3B
:101BD0008B8D9C8D20E030E04AEF54E40E941F0280
:101BE000DC01CB018D8B9E8BAF8BB88F6D897E898D
:101BF0008F89988D20E030E040E85FE30E94790310
:101C000088232CF481E090E09C8B8B8B3FC06D8906
:101C10007E898F89988D20E03FEF4FE757E40E943F
:101C2000190318164CF5698D7A8D8B8D9C8D20E0EB
:101C300030E040E251E40E941F02DC01CB01BC0114
:101C4000CD010E944900DC01CB019C8B8B8B0FC026
:101C500088EC90E09A8B898B89899A890197F1F7B2
:101C60009A8B898B8B899C8901979C8B8B8B8B8919
:101C70009C89009769F714C06D897E898F89988D3A
:101C80000E944900DC01CB019C8B8B8B8B899C894A
:101C9000988B8F878F8598890197F1F7988B8F871D
:101CA00082E062E040E00E94FE0780E090E0A0E277
:101CB000B1E48B879C87AD87BE876B857C858D85DE
:101CC0009E8520E030E04AEF54E40E941F02DC01D0
:101CD000CB018F839887A987BA876F81788589859B
:101CE0009A8520E030E040E85FE30E947903882392
:101CF0002CF481E090E09E838D833FC06F817885D6
:101D000089859A8520E03FEF4FE757E40E94190349
:101D100018164CF56B857C858D859E8520E030E01E
:101D200040E251E40E941F02DC01CB01BC01CD0165
:101D30000E944900DC01CB019E838D830FC088EC9B
:101D400090E09C838B838B819C810197F1F79C832E
:101D50008B838D819E8101979E838D838D819E8152
:101D6000009769F714C06F81788589859A850E94EC
:101D70004900DC01CB019E838D838D819E819A83F6
:101D8000898389819A810197F1F79A8389836D9676
:101D90000FB6F894DEBF0FBECDBFCF91DF9108958F
:101DA000DF93CF93CDB7DEB72F970FB6F894DEBF92
:101DB0000FBECDBF8F8782E060E040E00E94FE074B
:101DC00082E061E040E00E94FE0782E062E040E0E5
:101DD0000E94FE078F85982F991F9927991F83E0EE
:101DE00067E0492F0E94FE078F858295869586952C
:101DF0008370982F917083E066E0492F0E94FE0760
:101E00008F85829586958770982F917083E065E025
:101E1000492F0E94FE078F8582958F70982F9170B1
:101E200083E064E0492F0E94FE078F8586958695A2
:101E30008695982F917083E063E0492F0E94FE07FA
:101E40008F8586958695982F917083E062E0492F63
:101E50000E94FE078F858695982F917083E061E040
:101E6000492F0E94FE078F85982F917083E060E0D4
:101E7000492F0E94FE0782E062E041E00E94FE07D7
:101E800080E090E0A0E2B1E48B879C87AD87BE87BD
:101E90006B857C858D859E8520E030E04AEF54E49B
:101EA0000E941F02DC01CB018F839887A987BA8724
:101EB0006F81788589859A8520E030E040E85FE38E
:101EC0000E94790388232CF481E090E09E838D8327
:101ED0003FC06F81788589859A8520E03FEF4FE785
:101EE00057E40E94190318164CF56B857C858D8587
:101EF0009E8520E030E040E251E40E941F02DC01B8
:101F0000CB01BC01CD010E944900DC01CB019E83C5
:101F10008D830FC088EC90E09C838B838B819C81A8
:101F20000197F1F79C838B838D819E8101979E831E
:101F30008D838D819E81009769F714C06F817885AC
:101F400089859A850E944900DC01CB019E838D839F
:101F50008D819E819A83898389819A810197F1F786
:101F60009A83898382E062E040E00E94FE072F9618
:101F70000FB6F894DEBF0FBECDBFCF91DF910895AD
:101F8000DF93CF930F92CDB7DEB7198280E064E084
:101F900041E00E941407898380E065E041E00E94EF
:101FA0001407898380E066E041E00E94140789837A
:101FB00080E067E041E00E941407898380E060E0F0
:101FC00040E00E941407898380E061E040E00E94C5
:101FD0001407898380E062E040E00E94140789834F
:101FE00080E063E040E00E941407898380E064E0C1
:101FF00041E00E94FE07898380E065E041E00E94A5
:10200000FE07898380E066E041E00E94FE07898345
:1020100080E067E041E00E94FE07898380E060E0A5
:1020200041E00E94FE07898380E061E041E00E9478
:10203000FE07898380E062E041E00E94FE07898319
:1020400080E063E041E00E94FE07898389810F9070
:10205000CF91DF910895DF93CF93CDB7DEB76D9722
:102060000FB6F894DEBF0FBECDBF9F8B8E8B1C8248
:102070008E899F89009709F4AEC084E18B83EE8935
:10208000FF8984E18083CE0106969A8F898FE0E7ED
:10209000F0E0FC8FEB8FF0E1FD8FEB8DFC8D00808D
:1020A0008B8D9C8D01969C8F8B8FE98DFA8D008294
:1020B000898D9A8D01969A8F898F9D8D91509D8FD4
:1020C000ED8DEE2351F71A8281C08A81882F90E02E
:1020D000FC01EC57FF4F20818A81882F90E0FC01A2
:1020E000E459FF4F9081822F692F40E00E94FE0744
:1020F0008C83198251C08981882F90E0FC01E058BF
:10210000FF4F40818981882F90E0FC01E859FF4F03
:1021100090819E012B5F3F4F842F692FA9010E9460
:1021200074098D818823A9F516C08981882F90E0D4
:10213000FC01E058FF4F40818981882F90E0FC012D
:10214000E859FF4F90819E012B5F3F4F842F692FED
:10215000A9010E9474098D81882339F38981282F70
:1021600030E08A81482F50E0220F331F220F331FA7
:10217000CE010196820F931F840F951FFC013596A7
:102180008081EE89FF89808381E08C83FC81F88FD8
:1021900026C089818F5F89838981843008F4ABCF21
:1021A0008A81882F90E0FC01EC57FF4F20818A81C3
:1021B000882F90E0FC01E459FF4F9081822F692F16
:1021C00041E00E94FE078A818F5F8A838A81843082
:1021D00008F47BCF02C082E08C838C81888F888D4D
:1021E0006D960FB6F894DEBF0FBECDBFCF91DF91D5
:1021F0000895DF93CF9300D0CDB7DEB79A8389835C
:10220000E981FA81118210820F900F90CF91DF91B6
:102210000895DF93CF9300D000D0CDB7DEB79A8377
:1022200089837C836B83E981FA8180819181298113
:102230003A810196880F991FF901E80FF91F8B81E8
:102240009C8191838083E981FA81808191810196CB
:10225000E981FA81918380830F900F900F900F9006
:10226000CF91DF910895DF93CF9300D0CDB7DEB744
:102270009A838983E981FA81808191810197E9813B
:10228000FA81918380830F900F90CF91DF91089511
:10229000DF93CF9300D00F92CDB7DEB79A838983B7
:1022A000E981FA81808191811B82009711F481E09C
:1022B0008B838B810F900F900F90CF91DF910895BA
:1022C000DF93CF9300D00F92CDB7DEB79A83898387
:1022D000E981FA81808191811B828431910511F419
:1022E00081E08B838B810F900F900F90CF91DF91C6
:1022F0000895DF93CF9300D0CDB7DEB79A8389835B
:10230000E981FA8180819181019729813A81019641
:10231000880F991FF901E80FF91F808191810F90B3
:102320000F90CF91DF910895DF93CF9300D0CDB779
:10233000DEB79A838983E981FA81808191810F9048
:102340000F90CF91DF910895DF93CF93CDB7DEB794
:102350008EE890E00E942B1080918E008431C1F3B2
:1023600080918E000E94300C80918E008D3379F028
:1023700080918C0090918D0020918E00FC01E1579E
:10238000FF4F2083019690938D0080938C00CF9116
:10239000DF910895DF93CF93CDB7DEB7CC57D04010
:1023A0000FB6F894DEBF0FBECDBFFE01E758FF4F5A
:1023B0009183808310928900109288001A8E198E62
:1023C000188E1F8ACE014B960E94F910CE018B5BAE
:1023D0009F4F2AE0FC01DF01422F1D924A95E9F749
:1023E0001E8AD1C18E89282F30E0FE01E758FF4FA9
:1023F00080819181FC01E20FF31F80810E944715CB
:10240000882301F1898D9A8D9C01220F331FC90108
:10241000880F991F880F991FA901480F591F8E898E
:10242000282F30E0FE01E758FF4F80819181FC01A9
:10243000E20FF31F8081882F90E0C097840F951FD3
:102440009A8F898F8E89882F90E09C012F5F3F4F54
:10245000FE01E758FF4F80819181FC01E20FF31FDD
:1024600080810E944715882389F08E89882F90E00B
:102470009C012F5F3F4FFE01E758FF4F8081918104
:10248000FC01E20FF31F8081882349F4CE014B96B3
:10249000298D3A8DB9010E9409111A8E198E8E89E3
:1024A000282F30E0FE01E758FF4F80819181FC0129
:1024B000E20FF31F80810E942315882309F460C175
:1024C0008E89282F30E0FE01E758FF4F80819181EF
:1024D000FC01E20FF31F80818B3271F08E89282F6F
:1024E00030E0FE01E758FF4F80819181FC01E20F4F
:1024F000F31F80818D32D9F44F89588D8E89282F12
:1025000030E0FE01E758FF4F80819181FC01E20F2E
:10251000F31F2081CE018B5B9F4FFC01E40FF51F61
:1025200020838F89988D0196988F8F8B29C18E89F2
:10253000282F30E0FE01E758FF4F80819181FC0198
:10254000E20FF31F80818A3209F081C01D8A1C8A44
:102550001B8A1A8A82E090E0998B888B8E89882F5B
:1025600090E09C012F5F3F4FFE01E758FF4F8081B5
:102570009181FC01E20FF31F8081882F90E0C097CA
:102580009B8B8A8B2AC08A899B899C01220F331FCF
:10259000C901880F991F880F991FA901480F591F5A
:1025A0008E89282F30E088899989820F931F9C019A
:1025B000FE01E758FF4F80819181FC01E20FF31F7C
:1025C0008081882F90E0C097840F951F9B8B8A8B0A
:1025D000888999890196998B888B8E89282F30E07C
:1025E00088899989820F931F9C01FE01E758FF4F4C
:1025F00080819181FC01E20FF31F80810E944715C9
:10260000882309F698898E89890F82508E8BCE0196
:102610004B960E9479119C018A899B89DC012A9F33
:10262000C0012B9F900D3A9F900D11249D8B8C8B98
:10263000CE014B960E943311CE014B962C893D89D9
:10264000B9010E9409118E898F5F8E8B99C08E8986
:10265000282F30E0FE01E758FF4F80819181FC0177
:10266000E20FF31F80818F3209F08AC01F861E8619
:102670001D861C8682E090E09B878A878E89882F42
:1026800090E09C012F5F3F4FFE01E758FF4F808194
:102690009181FC01E20FF31F8081882F90E0C097A9
:1026A0009D878C872AC08C859D859C01220F331FB6
:1026B000C901880F991F880F991FA901480F591F39
:1026C0008E89282F30E08A859B85820F931F9C017D
:1026D000FE01E758FF4F80819181FC01E20FF31F5B
:1026E0008081882F90E0C097840F951F9D878C87ED
:1026F0008A859B8501969B878A878E89282F30E063
:102700008A859B85820F931F9C01FE01E758FF4F2E
:1027100080819181FC01E20FF31F80810E944715A7
:10272000882309F69A858E89890F82508E8B8C8535
:102730009D85009759F481E090E090938B00809301
:102740008A00ED961FAE1EAEED97E5C0CE014B960A
:102750000E9479112C853D85B9010E949015CB010D
:102760009F878E87CE014B960E943311CE014B96E8
:102770002E853F85B9010E9409118E898F5F8E8B4E
:102780008E898F5F8E8B8E89282F30E0FE01E7586F
:10279000FF4F80819181FC01E20FF31F808188232C
:1027A00009F020CECE01815B9F4F0E94F9100FC02F
:1027B000CE014B960E9479119C01CE01815B9F4F07
:1027C000B9010E940911CE014B960E943311CE012E
:1027D0004B960E944811882359F3FE01EB5BFF4F93
:1027E0008081882309F488C0198663C08985282FD1
:1027F00030E0CE018B5B9F4FFC01E20FF31F808125
:102800008B3221F5CE01815B9F4F0E947911988711
:102810008F83CE01815B9F4F0E943311CE01815B7C
:102820009F4F0E9479119E838D83CE01815B9F4FC4
:102830000E9433112F8138858D819E81280F391F89
:10284000CE01815B9F4FB9010E9409118985282F14
:1028500030E0CE018B5B9F4FFC01E20FF31F8081C4
:102860008D3221F5CE01815B9F4F0E9479119C83AF
:102870008B83CE01815B9F4F0E943311CE01815B20
:102880009F4F0E9479119A838983CE01815B9F4F6C
:102890000E9433112B813C8189819A81281B390B3D
:1028A000CE01815B9F4FB9010E94091189858F5F1D
:1028B00089878985282F30E0CE018B5B9F4FFC01F3
:1028C000E20FF31F8081882309F090CF15C0CE015D
:1028D000815B9F4F0E9479119C01809188009091AB
:1028E0008900820F931F9093890080938800CE0106
:1028F000815B9F4F0E943311CE01815B9F4F0E94ED
:102900009411882321F74091880050918900ED9619
:102910005FAF4EAFED97ED968EAD9FADED97C4587E
:10292000DF4F0FB6F894DEBF0FBECDBFCF91DF9162
:102930000895DF93CF93CDB7DEB780918E008334B7
:1029400039F48FE890E00E94EE140E94191543C0FC
:1029500080918E008D3309F03EC08FE890E00E9498
:10296000CA11909389008093880080EC0E94450CE6
:1029700080918A0090918B000097B9F48091880033
:1029800090918900009721F480E30E94300C1FC0D1
:102990008091880090918900AA2797FDA095BA2F71
:1029A000BC01CD010E945A0C12C085E40E94300C7B
:1029B00082E50E94300C82E50E94300C8FE40E9478
:1029C000300C82E50E94300C81E20E94300C8FE8CE
:1029D00090E00E94EE14CF91DF910895DF93CF93A2
:1029E00000D00F92CDB7DEB79B838A831092890007
:1029F0001092880010928B0010928A0010928D0025
:102A000010928C0019820CC08981282F30E08A81B5
:102A10009B81FC01E20FF31F108289818F5F898304
:102A200089818F3088F30F900F900F90CF91DF91B5
:102A30000895DF93CF93CDB7DEB781E00E94450CB8
:102A4000CF91DF910895DF93CF9300D00F92CDB750
:102A5000DEB7898389818B3261F089818D3249F0BB
:102A600089818A3231F089818F3219F089818E35DE
:102A700029F481E090E09B838A8302C01B821A8242
:102A80008A810F900F900F90CF91DF910895DF937F
:102A9000CF9300D00F92CDB7DEB789838981803381
:102AA00040F089818A3328F481E090E09B838A8317
:102AB00002C01B821A828A810F900F900F90CF91D3
:102AC000DF910895DF93CF93CDB7DEB70E94A305C2
:102AD0000E94C00F0E94100A0E94A4110E94991423
:102AE000FBCF629FD001739FF001829FE00DF11D2B
:102AF000649FE00DF11D929FF00D839FF00D749F78
:102B0000F00D659FF00D9927729FB00DE11DF91F23
:102B1000639FB00DE11DF91FBD01CF011124089580
:102B200097FB092E07260AD077FD04D027D006D0C0
:102B300000201AF4709561957F4F0895F6F79095EF
:102B400081959F4F089597FB092E05260ED057FDBE
:102B500004D028D00AD0001C38F450954095309508
:102B600021953F4F4F4F5F4F0895F6F79095809511
:102B7000709561957F4F8F4F9F4F0895AA1BBB1B88
:102B800051E107C0AA1FBB1FA617B70710F0A61B6D
:102B9000B70B881F991F5A95A9F780959095BC018E
:102BA000CD010895A1E21A2EAA1BBB1BFD010DC089
:102BB000AA1FBB1FEE1FFF1FA217B307E407F507ED
:102BC00020F0A21BB30BE40BF50B661F771F881FC9
:102BD000991F1A9469F760957095809590959B015F
:102BE000AC01BD01CF0108952F923F924F925F92A9
:102BF0006F927F928F929F92AF92BF92CF92DF920D
:102C0000EF92FF920F931F93CF93DF93CDB7DEB771
:102C1000CA1BDB0B0FB6F894DEBF0FBECDBF099405
:102C20002A88398848885F846E847D848C849B845C
:102C3000AA84B984C884DF80EE80FD800C811B816A
:102C4000AA81B981CE0FD11D0FB6F894DEBF0FBE99
:0A2C5000CDBFED010895F894FFCF09
:102C5A00000000000000000000010203040506074E
:102C6A003738392F3435362A3132332D43303D2B1C
:00000001FF
